{
  "_format": "hh-sol-artifact-1",
  "contractName": "Bounty",
  "sourceName": "contracts/Bounty.sol",
  "abi": [
    {
      "inputs": [
        {
          "internalType": "string",
          "name": "name",
          "type": "string"
        },
        {
          "internalType": "uint16",
          "name": "day",
          "type": "uint16"
        },
        {
          "internalType": "contract ERC20",
          "name": "token",
          "type": "address"
        },
        {
          "internalType": "bytes32",
          "name": "answer",
          "type": "bytes32"
        },
        {
          "internalType": "contract StorageVeficications",
          "name": "stora",
          "type": "address"
        }
      ],
      "stateMutability": "nonpayable",
      "type": "constructor"
    },
    {
      "anonymous": false,
      "inputs": [
        {
          "indexed": true,
          "internalType": "address",
          "name": "previousOwner",
          "type": "address"
        },
        {
          "indexed": true,
          "internalType": "address",
          "name": "newOwner",
          "type": "address"
        }
      ],
      "name": "OwnershipTransferred",
      "type": "event"
    },
    {
      "inputs": [],
      "name": "_name",
      "outputs": [
        {
          "internalType": "string",
          "name": "",
          "type": "string"
        }
      ],
      "stateMutability": "view",
      "type": "function"
    },
    {
      "inputs": [],
      "name": "beginningTimer",
      "outputs": [
        {
          "internalType": "uint256",
          "name": "",
          "type": "uint256"
        }
      ],
      "stateMutability": "view",
      "type": "function"
    },
    {
      "inputs": [
        {
          "internalType": "string",
          "name": "password",
          "type": "string"
        }
      ],
      "name": "confirmIdentity",
      "outputs": [],
      "stateMutability": "nonpayable",
      "type": "function"
    },
    {
      "inputs": [],
      "name": "decimals",
      "outputs": [
        {
          "internalType": "uint8",
          "name": "",
          "type": "uint8"
        }
      ],
      "stateMutability": "view",
      "type": "function"
    },
    {
      "inputs": [
        {
          "internalType": "uint256",
          "name": "amount",
          "type": "uint256"
        }
      ],
      "name": "deposit",
      "outputs": [],
      "stateMutability": "nonpayable",
      "type": "function"
    },
    {
      "inputs": [],
      "name": "endingTimer",
      "outputs": [
        {
          "internalType": "uint256",
          "name": "",
          "type": "uint256"
        }
      ],
      "stateMutability": "view",
      "type": "function"
    },
    {
      "inputs": [],
      "name": "isVerified",
      "outputs": [
        {
          "internalType": "bool",
          "name": "",
          "type": "bool"
        }
      ],
      "stateMutability": "view",
      "type": "function"
    },
    {
      "inputs": [],
      "name": "owner",
      "outputs": [
        {
          "internalType": "address",
          "name": "",
          "type": "address"
        }
      ],
      "stateMutability": "view",
      "type": "function"
    },
    {
      "inputs": [],
      "name": "renounceOwnership",
      "outputs": [],
      "stateMutability": "nonpayable",
      "type": "function"
    },
    {
      "inputs": [],
      "name": "symbol",
      "outputs": [
        {
          "internalType": "string",
          "name": "",
          "type": "string"
        }
      ],
      "stateMutability": "view",
      "type": "function"
    },
    {
      "inputs": [],
      "name": "totalRewards",
      "outputs": [
        {
          "internalType": "uint256",
          "name": "",
          "type": "uint256"
        }
      ],
      "stateMutability": "view",
      "type": "function"
    },
    {
      "inputs": [
        {
          "internalType": "address",
          "name": "newOwner",
          "type": "address"
        }
      ],
      "name": "transferOwnership",
      "outputs": [],
      "stateMutability": "nonpayable",
      "type": "function"
    },
    {
      "inputs": [
        {
          "internalType": "uint16",
          "name": "day",
          "type": "uint16"
        }
      ],
      "name": "updateTimer",
      "outputs": [],
      "stateMutability": "nonpayable",
      "type": "function"
    },
    {
      "inputs": [],
      "name": "withdraw",
      "outputs": [],
      "stateMutability": "nonpayable",
      "type": "function"
    }
  ],
  "bytecode": "0x60806040523480156200001157600080fd5b50604051620021303803806200213083398181016040528101906200003791906200034e565b600062000049620001c860201b60201c565b9050806000806101000a81548173ffffffffffffffffffffffffffffffffffffffff021916908373ffffffffffffffffffffffffffffffffffffffff1602179055508073ffffffffffffffffffffffffffffffffffffffff16600073ffffffffffffffffffffffffffffffffffffffff167f8be0079c531659141344cd1fd0a4f28419497f9722a3daafe3b4186f6b6457e060405160405180910390a3508460039080519060200190620000ff929190620001d0565b508160078190555082600160006101000a81548173ffffffffffffffffffffffffffffffffffffffff021916908373ffffffffffffffffffffffffffffffffffffffff16021790555080600260006101000a81548173ffffffffffffffffffffffffffffffffffffffff021916908373ffffffffffffffffffffffffffffffffffffffff16021790555042600581905550620151808461ffff16620001a59190620004ad565b62ffffff1642620001b7919062000450565b6006819055505050505050620006df565b600033905090565b828054620001de90620005b4565b90600052602060002090601f0160209004810192826200020257600085556200024e565b82601f106200021d57805160ff19168380011785556200024e565b828001600101855582156200024e579182015b828111156200024d57825182559160200191906001019062000230565b5b5090506200025d919062000261565b5090565b5b808211156200027c57600081600090555060010162000262565b5090565b60006200029762000291846200041d565b620003e9565b905082815260208101848484011115620002b057600080fd5b620002bd8482856200057e565b509392505050565b600081519050620002d68162000677565b92915050565b600081519050620002ed8162000691565b92915050565b6000815190506200030481620006ab565b92915050565b600082601f8301126200031c57600080fd5b81516200032e84826020860162000280565b91505092915050565b6000815190506200034881620006c5565b92915050565b600080600080600060a086880312156200036757600080fd5b600086015167ffffffffffffffff8111156200038257600080fd5b62000390888289016200030a565b9550506020620003a38882890162000337565b9450506040620003b688828901620002dc565b9350506060620003c988828901620002c5565b9250506080620003dc88828901620002f3565b9150509295509295909350565b6000604051905081810181811067ffffffffffffffff8211171562000413576200041262000648565b5b8060405250919050565b600067ffffffffffffffff8211156200043b576200043a62000648565b5b601f19601f8301169050602081019050919050565b60006200045d8262000574565b91506200046a8362000574565b9250827fffffffffffffffffffffffffffffffffffffffffffffffffffffffffffffffff03821115620004a257620004a1620005ea565b5b828201905092915050565b6000620004ba8262000565565b9150620004c78362000565565b92508162ffffff0483118215151615620004e657620004e5620005ea565b5b828202905092915050565b6000620004fe8262000545565b9050919050565b6000819050919050565b60006200051c82620004f1565b9050919050565b60006200053082620004f1565b9050919050565b600061ffff82169050919050565b600073ffffffffffffffffffffffffffffffffffffffff82169050919050565b600062ffffff82169050919050565b6000819050919050565b60005b838110156200059e57808201518184015260208101905062000581565b83811115620005ae576000848401525b50505050565b60006002820490506001821680620005cd57607f821691505b60208210811415620005e457620005e362000619565b5b50919050565b7f4e487b7100000000000000000000000000000000000000000000000000000000600052601160045260246000fd5b7f4e487b7100000000000000000000000000000000000000000000000000000000600052602260045260246000fd5b7f4e487b7100000000000000000000000000000000000000000000000000000000600052604160045260246000fd5b620006828162000505565b81146200068e57600080fd5b50565b6200069c816200050f565b8114620006a857600080fd5b50565b620006b68162000523565b8114620006c257600080fd5b50565b620006d08162000537565b8114620006dc57600080fd5b50565b611a4180620006ef6000396000f3fe608060405234801561001057600080fd5b50600436106100ea5760003560e01c8063913cad501161008c578063cb3164f911610066578063cb3164f9146101ed578063d28d88521461020b578063ee40c60e14610229578063f2fde38b14610247576100ea565b8063913cad501461019757806395d89b41146101b3578063b6b55f25146101d1576100ea565b80633ccfd60b116100c85780633ccfd60b14610147578063715018a61461015157806380007e831461015b5780638da5cb5b14610179576100ea565b80630bd9dc5f146100ef5780630e15561a1461010b578063313ce56714610129575b600080fd5b610109600480360381019061010491906110e1565b610263565b005b61011361030d565b60405161012091906116ae565b60405180910390f35b6101316103bf565b60405161013e91906116c9565b60405180910390f35b61014f610466565b005b6101596105e0565b005b61016361071a565b604051610170919061156f565b60405180910390f35b610181610731565b60405161018e91906114f4565b60405180910390f35b6101b160048036038101906101ac919061105f565b61075a565b005b6101bb6109c2565b6040516101c8919061158a565b60405180910390f35b6101eb60048036038101906101e6919061110a565b610a6e565b005b6101f5610c74565b60405161020291906116ae565b60405180910390f35b610213610c7a565b604051610220919061158a565b60405180910390f35b610231610d08565b60405161023e91906116ae565b60405180910390f35b610261600480360381019061025c919061100d565b610d0e565b005b61026b610eb7565b73ffffffffffffffffffffffffffffffffffffffff16610289610731565b73ffffffffffffffffffffffffffffffffffffffff16146102df576040517f08c379a00000000000000000000000000000000000000000000000000000000081526004016102d69061166e565b60405180910390fd5b620151808161ffff166102f291906117d7565b62ffffff166006546103049190611781565b60068190555050565b6000600160009054906101000a900473ffffffffffffffffffffffffffffffffffffffff1673ffffffffffffffffffffffffffffffffffffffff166370a08231306040518263ffffffff1660e01b815260040161036a91906114f4565b60206040518083038186803b15801561038257600080fd5b505afa158015610396573d6000803e3d6000fd5b505050506040513d601f19601f820116820180604052508101906103ba9190611133565b905090565b6000600160009054906101000a900473ffffffffffffffffffffffffffffffffffffffff1673ffffffffffffffffffffffffffffffffffffffff1663313ce5676040518163ffffffff1660e01b815260040160206040518083038186803b15801561042957600080fd5b505afa15801561043d573d6000803e3d6000fd5b505050506040513d601f19601f82011682018060405250810190610461919061115c565b905090565b60065442116104aa576040517f08c379a00000000000000000000000000000000000000000000000000000000081526004016104a1906115ce565b60405180910390fd5b600160009054906101000a900473ffffffffffffffffffffffffffffffffffffffff1673ffffffffffffffffffffffffffffffffffffffff1663a9059cbb33600860003373ffffffffffffffffffffffffffffffffffffffff1673ffffffffffffffffffffffffffffffffffffffff168152602001908152602001600020546040518363ffffffff1660e01b8152600401610546929190611546565b602060405180830381600087803b15801561056057600080fd5b505af1158015610574573d6000803e3d6000fd5b505050506040513d601f19601f820116820180604052508101906105989190611036565b506000600860003373ffffffffffffffffffffffffffffffffffffffff1673ffffffffffffffffffffffffffffffffffffffff16815260200190815260200160002081905550565b6105e8610eb7565b73ffffffffffffffffffffffffffffffffffffffff16610606610731565b73ffffffffffffffffffffffffffffffffffffffff161461065c576040517f08c379a00000000000000000000000000000000000000000000000000000000081526004016106539061166e565b60405180910390fd5b600073ffffffffffffffffffffffffffffffffffffffff1660008054906101000a900473ffffffffffffffffffffffffffffffffffffffff1673ffffffffffffffffffffffffffffffffffffffff167f8be0079c531659141344cd1fd0a4f28419497f9722a3daafe3b4186f6b6457e060405160405180910390a360008060006101000a81548173ffffffffffffffffffffffffffffffffffffffff021916908373ffffffffffffffffffffffffffffffffffffffff160217905550565b6000600460009054906101000a900460ff16905090565b60008060009054906101000a900473ffffffffffffffffffffffffffffffffffffffff16905090565b6007548160405160200161076e91906114dd565b60405160208183030381529060405280519060200120146107c4576040517f08c379a00000000000000000000000000000000000000000000000000000000081526004016107bb9061162e565b60405180910390fd5b6006544210610808576040517f08c379a00000000000000000000000000000000000000000000000000000000081526004016107ff9061168e565b60405180910390fd5b60011515600460009054906101000a900460ff161515141561085f576040517f08c379a00000000000000000000000000000000000000000000000000000000081526004016108569061160e565b60405180910390fd5b600160009054906101000a900473ffffffffffffffffffffffffffffffffffffffff1673ffffffffffffffffffffffffffffffffffffffff1663a9059cbb336108a661030d565b6040518363ffffffff1660e01b81526004016108c3929190611546565b602060405180830381600087803b1580156108dd57600080fd5b505af11580156108f1573d6000803e3d6000fd5b505050506040513d601f19601f820116820180604052508101906109159190611036565b506001600460006101000a81548160ff021916908315150217905550600260009054906101000a900473ffffffffffffffffffffffffffffffffffffffff1673ffffffffffffffffffffffffffffffffffffffff1663a61db0e660036040518263ffffffff1660e01b815260040161098d91906115ac565b600060405180830381600087803b1580156109a757600080fd5b505af11580156109bb573d6000803e3d6000fd5b5050505050565b6060600160009054906101000a900473ffffffffffffffffffffffffffffffffffffffff1673ffffffffffffffffffffffffffffffffffffffff166395d89b416040518163ffffffff1660e01b815260040160006040518083038186803b158015610a2c57600080fd5b505afa158015610a40573d6000803e3d6000fd5b505050506040513d6000823e3d601f19601f82011682018060405250810190610a6991906110a0565b905090565b80600160009054906101000a900473ffffffffffffffffffffffffffffffffffffffff1673ffffffffffffffffffffffffffffffffffffffff166370a08231336040518263ffffffff1660e01b8152600401610aca91906114f4565b60206040518083038186803b158015610ae257600080fd5b505afa158015610af6573d6000803e3d6000fd5b505050506040513d601f19601f82011682018060405250810190610b1a9190611133565b1015610b2557600080fd5b6006544210610b69576040517f08c379a0000000000000000000000000000000000000000000000000000000008152600401610b609061164e565b60405180910390fd5b600160009054906101000a900473ffffffffffffffffffffffffffffffffffffffff1673ffffffffffffffffffffffffffffffffffffffff166323b872dd3330846040518463ffffffff1660e01b8152600401610bc89392919061150f565b602060405180830381600087803b158015610be257600080fd5b505af1158015610bf6573d6000803e3d6000fd5b505050506040513d601f19601f82011682018060405250810190610c1a9190611036565b5080600860003373ffffffffffffffffffffffffffffffffffffffff1673ffffffffffffffffffffffffffffffffffffffff1681526020019081526020016000206000828254610c6a9190611781565b9250508190555050565b60055481565b60038054610c87906118c8565b80601f0160208091040260200160405190810160405280929190818152602001828054610cb3906118c8565b8015610d005780601f10610cd557610100808354040283529160200191610d00565b820191906000526020600020905b815481529060010190602001808311610ce357829003601f168201915b505050505081565b60065481565b610d16610eb7565b73ffffffffffffffffffffffffffffffffffffffff16610d34610731565b73ffffffffffffffffffffffffffffffffffffffff1614610d8a576040517f08c379a0000000000000000000000000000000000000000000000000000000008152600401610d819061166e565b60405180910390fd5b600073ffffffffffffffffffffffffffffffffffffffff168173ffffffffffffffffffffffffffffffffffffffff161415610dfa576040517f08c379a0000000000000000000000000000000000000000000000000000000008152600401610df1906115ee565b60405180910390fd5b8073ffffffffffffffffffffffffffffffffffffffff1660008054906101000a900473ffffffffffffffffffffffffffffffffffffffff1673ffffffffffffffffffffffffffffffffffffffff167f8be0079c531659141344cd1fd0a4f28419497f9722a3daafe3b4186f6b6457e060405160405180910390a3806000806101000a81548173ffffffffffffffffffffffffffffffffffffffff021916908373ffffffffffffffffffffffffffffffffffffffff16021790555050565b600033905090565b6000610ed2610ecd84611715565b6116e4565b905082815260208101848484011115610eea57600080fd5b610ef5848285611886565b509392505050565b6000610f10610f0b84611715565b6116e4565b905082815260208101848484011115610f2857600080fd5b610f33848285611895565b509392505050565b600081359050610f4a81611998565b92915050565b600081519050610f5f816119af565b92915050565b600082601f830112610f7657600080fd5b8135610f86848260208601610ebf565b91505092915050565b600082601f830112610fa057600080fd5b8151610fb0848260208601610efd565b91505092915050565b600081359050610fc8816119c6565b92915050565b600081359050610fdd816119dd565b92915050565b600081519050610ff2816119dd565b92915050565b600081519050611007816119f4565b92915050565b60006020828403121561101f57600080fd5b600061102d84828501610f3b565b91505092915050565b60006020828403121561104857600080fd5b600061105684828501610f50565b91505092915050565b60006020828403121561107157600080fd5b600082013567ffffffffffffffff81111561108b57600080fd5b61109784828501610f65565b91505092915050565b6000602082840312156110b257600080fd5b600082015167ffffffffffffffff8111156110cc57600080fd5b6110d884828501610f8f565b91505092915050565b6000602082840312156110f357600080fd5b600061110184828501610fb9565b91505092915050565b60006020828403121561111c57600080fd5b600061112a84828501610fce565b91505092915050565b60006020828403121561114557600080fd5b600061115384828501610fe3565b91505092915050565b60006020828403121561116e57600080fd5b600061117c84828501610ff8565b91505092915050565b61118e81611814565b82525050565b61119d81611826565b82525050565b60006111ae8261175a565b6111b88185611765565b93506111c8818560208601611895565b6111d181611987565b840191505092915050565b60006111e78261175a565b6111f18185611776565b9350611201818560208601611895565b80840191505092915050565b6000815461121a816118c8565b6112248186611765565b9450600182166000811461123f576001811461125157611284565b60ff1983168652602086019350611284565b61125a85611745565b60005b8381101561127c5781548189015260018201915060208101905061125d565b808801955050505b50505092915050565b600061129a602783611765565b91507f596f75206e65656420746f207761697420626f7574796e20656e6420746f207760008301527f69746864726177000000000000000000000000000000000000000000000000006020830152604082019050919050565b6000611300602683611765565b91507f4f776e61626c653a206e6577206f776e657220697320746865207a65726f206160008301527f64647265737300000000000000000000000000000000000000000000000000006020830152604082019050919050565b6000611366601683611765565b91507f416c7265616479206265656e20766572696669656420000000000000000000006000830152602082019050919050565b60006113a6600e83611765565b91507f77726f67652070617373776f72640000000000000000000000000000000000006000830152602082019050919050565b60006113e6602b83611765565b91507f4927747320706f73736962656c206465706f736974206166746572207468652060008301527f656e64696e6754696d65720000000000000000000000000000000000000000006020830152604082019050919050565b600061144c602083611765565b91507f4f776e61626c653a2063616c6c6572206973206e6f7420746865206f776e65726000830152602082019050919050565b600061148c601e83611765565b91507f596f75206c6f7374207468652074696d6520746f2067657420626f75747500006000830152602082019050919050565b6114c88161186f565b82525050565b6114d781611879565b82525050565b60006114e982846111dc565b915081905092915050565b60006020820190506115096000830184611185565b92915050565b60006060820190506115246000830186611185565b6115316020830185611185565b61153e60408301846114bf565b949350505050565b600060408201905061155b6000830185611185565b61156860208301846114bf565b9392505050565b60006020820190506115846000830184611194565b92915050565b600060208201905081810360008301526115a481846111a3565b905092915050565b600060208201905081810360008301526115c6818461120d565b905092915050565b600060208201905081810360008301526115e78161128d565b9050919050565b60006020820190508181036000830152611607816112f3565b9050919050565b6000602082019050818103600083015261162781611359565b9050919050565b6000602082019050818103600083015261164781611399565b9050919050565b60006020820190508181036000830152611667816113d9565b9050919050565b600060208201905081810360008301526116878161143f565b9050919050565b600060208201905081810360008301526116a78161147f565b9050919050565b60006020820190506116c360008301846114bf565b92915050565b60006020820190506116de60008301846114ce565b92915050565b6000604051905081810181811067ffffffffffffffff8211171561170b5761170a611958565b5b8060405250919050565b600067ffffffffffffffff8211156117305761172f611958565b5b601f19601f8301169050602081019050919050565b60008190508160005260206000209050919050565b600081519050919050565b600082825260208201905092915050565b600081905092915050565b600061178c8261186f565b91506117978361186f565b9250827fffffffffffffffffffffffffffffffffffffffffffffffffffffffffffffffff038211156117cc576117cb6118fa565b5b828201905092915050565b60006117e282611860565b91506117ed83611860565b92508162ffffff0483118215151615611809576118086118fa565b5b828202905092915050565b600061181f82611840565b9050919050565b60008115159050919050565b600061ffff82169050919050565b600073ffffffffffffffffffffffffffffffffffffffff82169050919050565b600062ffffff82169050919050565b6000819050919050565b600060ff82169050919050565b82818337600083830152505050565b60005b838110156118b3578082015181840152602081019050611898565b838111156118c2576000848401525b50505050565b600060028204905060018216806118e057607f821691505b602082108114156118f4576118f3611929565b5b50919050565b7f4e487b7100000000000000000000000000000000000000000000000000000000600052601160045260246000fd5b7f4e487b7100000000000000000000000000000000000000000000000000000000600052602260045260246000fd5b7f4e487b7100000000000000000000000000000000000000000000000000000000600052604160045260246000fd5b6000601f19601f8301169050919050565b6119a181611814565b81146119ac57600080fd5b50565b6119b881611826565b81146119c357600080fd5b50565b6119cf81611832565b81146119da57600080fd5b50565b6119e68161186f565b81146119f157600080fd5b50565b6119fd81611879565b8114611a0857600080fd5b5056fea2646970667358221220fbf3780a52cae828bb1b4f62c2ae5c3a993d4187827f830ce2ab57e7424f85d764736f6c63430008000033",
  "linkReferences": {},
  "deployedLinkReferences": {}
}